{
  "contractName": "Account",
  "abi": [
    {
      "constant": true,
      "inputs": [],
      "name": "TaxOutputAddress",
      "outputs": [
        {
          "name": "",
          "type": "address"
        }
      ],
      "payable": false,
      "stateMutability": "view",
      "type": "function"
    },
    {
      "constant": true,
      "inputs": [],
      "name": "TimeTillReward",
      "outputs": [
        {
          "name": "",
          "type": "uint256"
        }
      ],
      "payable": false,
      "stateMutability": "view",
      "type": "function"
    },
    {
      "constant": true,
      "inputs": [],
      "name": "SuperAccountId",
      "outputs": [
        {
          "name": "",
          "type": "address"
        }
      ],
      "payable": false,
      "stateMutability": "view",
      "type": "function"
    },
    {
      "constant": true,
      "inputs": [],
      "name": "closedAccountType",
      "outputs": [
        {
          "name": "",
          "type": "uint8"
        }
      ],
      "payable": false,
      "stateMutability": "view",
      "type": "function"
    },
    {
      "constant": true,
      "inputs": [],
      "name": "AccountStatus",
      "outputs": [
        {
          "name": "",
          "type": "uint8"
        }
      ],
      "payable": false,
      "stateMutability": "view",
      "type": "function"
    },
    {
      "constant": true,
      "inputs": [
        {
          "name": "",
          "type": "address"
        }
      ],
      "name": "DelegatePermissions",
      "outputs": [
        {
          "name": "",
          "type": "uint8"
        }
      ],
      "payable": false,
      "stateMutability": "view",
      "type": "function"
    },
    {
      "constant": true,
      "inputs": [],
      "name": "openAccountType",
      "outputs": [
        {
          "name": "",
          "type": "uint8"
        }
      ],
      "payable": false,
      "stateMutability": "view",
      "type": "function"
    },
    {
      "constant": true,
      "inputs": [],
      "name": "PayoutFrequency",
      "outputs": [
        {
          "name": "",
          "type": "uint256"
        }
      ],
      "payable": false,
      "stateMutability": "view",
      "type": "function"
    },
    {
      "constant": true,
      "inputs": [],
      "name": "NetBalance",
      "outputs": [
        {
          "name": "",
          "type": "uint256"
        }
      ],
      "payable": false,
      "stateMutability": "view",
      "type": "function"
    },
    {
      "constant": true,
      "inputs": [],
      "name": "AccountType",
      "outputs": [
        {
          "name": "",
          "type": "uint8"
        }
      ],
      "payable": false,
      "stateMutability": "view",
      "type": "function"
    },
    {
      "constant": true,
      "inputs": [],
      "name": "RewardSize",
      "outputs": [
        {
          "name": "",
          "type": "uint256"
        }
      ],
      "payable": false,
      "stateMutability": "view",
      "type": "function"
    },
    {
      "inputs": [
        {
          "name": "employeeId",
          "type": "address"
        },
        {
          "name": "accountType",
          "type": "uint8"
        }
      ],
      "payable": false,
      "stateMutability": "nonpayable",
      "type": "constructor"
    },
    {
      "payable": true,
      "stateMutability": "payable",
      "type": "fallback"
    },
    {
      "anonymous": false,
      "inputs": [
        {
          "indexed": false,
          "name": "createdAccount",
          "type": "string"
        }
      ],
      "name": "LogSuccessfullyCreated",
      "type": "event"
    },
    {
      "anonymous": false,
      "inputs": [
        {
          "indexed": false,
          "name": "removedAccount",
          "type": "string"
        }
      ],
      "name": "LogSuccessfullyRemoved",
      "type": "event"
    },
    {
      "constant": false,
      "inputs": [
        {
          "name": "rewardIncrement",
          "type": "uint256"
        }
      ],
      "name": "increaseRewardSize",
      "outputs": [],
      "payable": false,
      "stateMutability": "nonpayable",
      "type": "function"
    },
    {
      "constant": false,
      "inputs": [
        {
          "name": "rewardIncrement",
          "type": "uint256"
        }
      ],
      "name": "decreaseRewardSize",
      "outputs": [],
      "payable": false,
      "stateMutability": "nonpayable",
      "type": "function"
    },
    {
      "constant": false,
      "inputs": [
        {
          "name": "payoutFrequencyIncrement",
          "type": "uint256"
        }
      ],
      "name": "increasePayoutFrequency",
      "outputs": [],
      "payable": false,
      "stateMutability": "nonpayable",
      "type": "function"
    },
    {
      "constant": false,
      "inputs": [
        {
          "name": "payoutFrequencyIncrement",
          "type": "uint256"
        }
      ],
      "name": "decreasePayoutFrequency",
      "outputs": [],
      "payable": false,
      "stateMutability": "nonpayable",
      "type": "function"
    },
    {
      "constant": false,
      "inputs": [
        {
          "name": "thirdPartyAddress",
          "type": "address"
        }
      ],
      "name": "removeAllDelegatePermissions",
      "outputs": [],
      "payable": false,
      "stateMutability": "nonpayable",
      "type": "function"
    },
    {
      "constant": false,
      "inputs": [
        {
          "name": "thirdPartyAddress",
          "type": "address"
        }
      ],
      "name": "permitToContributiveOnly",
      "outputs": [],
      "payable": false,
      "stateMutability": "nonpayable",
      "type": "function"
    },
    {
      "constant": false,
      "inputs": [
        {
          "name": "thirdPartyAddress",
          "type": "address"
        }
      ],
      "name": "permitToAdmistrative",
      "outputs": [],
      "payable": false,
      "stateMutability": "nonpayable",
      "type": "function"
    },
    {
      "constant": false,
      "inputs": [],
      "name": "closeAccount",
      "outputs": [],
      "payable": false,
      "stateMutability": "nonpayable",
      "type": "function"
    },
    {
      "constant": false,
      "inputs": [
        {
          "name": "recieverAddress",
          "type": "address"
        },
        {
          "name": "amount",
          "type": "uint256"
        }
      ],
      "name": "transferFunds",
      "outputs": [],
      "payable": false,
      "stateMutability": "nonpayable",
      "type": "function"
    }
  ],
  "bytecode": "0x60806040526000600860016101000a81548160ff0219169083600181111561002357fe5b02179055506001600860026101000a81548160ff0219169083600181111561004757fe5b021790555034801561005857600080fd5b50604051604080610fa28339810180604052604081101561007857600080fd5b810190808051906020019092919080519060200190929190505050306000806101000a81548173ffffffffffffffffffffffffffffffffffffffff021916908373ffffffffffffffffffffffffffffffffffffffff16021790555081600160006101000a81548173ffffffffffffffffffffffffffffffffffffffff021916908373ffffffffffffffffffffffffffffffffffffffff1602179055506001600860006101000a81548160ff0219169083600181111561013357fe5b021790555080600860036101000a81548160ff0219169083600481111561015657fe5b021790555060606040518060400160405280600681526020017f6c6f67676564000000000000000000000000000000000000000000000000000081525090507f1ab379b40005ad9e7ee28cc5354473bfe302c16d3f55bc66d50210a954c19190816040518080602001828103825283818151815260200191508051906020019080838360005b838110156101f75780820151818401526020810190506101dc565b50505050905090810190601f1680156102245780820380516001836020036101000a031916815260200191505b509250505060405180910390a1505050610d5f806102436000396000f3fe60806040526004361061011f5760003560e01c80637d57daad116100a0578063a98521a911610064578063a98521a9146104f2578063c0e52d5614610543578063df50e19d1461057c578063dfd44a95146105a7578063ebd2a864146105e25761011f565b80637d57daad146103b557806383be1bf1146103f0578063990dc9db146104415780639aee2e9a1461049c5780639e2c1b16146104c75761011f565b8063463da8be116100e7578063463da8be1461027e5780636dd22fc6146102b75780636fd7eb61146102ce5780637611c574146103415780637d34602d1461037a5761011f565b806326107a381461013157806326c698011461018857806329a83c76146101b35780632aee5fb21461020a57806339bfba7e14610243575b34600460008282540192505081905550005b34801561013d57600080fd5b50610146610633565b604051808273ffffffffffffffffffffffffffffffffffffffff1673ffffffffffffffffffffffffffffffffffffffff16815260200191505060405180910390f35b34801561019457600080fd5b5061019d610659565b6040518082815260200191505060405180910390f35b3480156101bf57600080fd5b506101c861065f565b604051808273ffffffffffffffffffffffffffffffffffffffff1673ffffffffffffffffffffffffffffffffffffffff16815260200191505060405180910390f35b34801561021657600080fd5b5061021f610684565b6040518082600181111561022f57fe5b60ff16815260200191505060405180910390f35b34801561024f57600080fd5b5061027c6004803603602081101561026657600080fd5b8101908080359060200190929190505050610697565b005b34801561028a57600080fd5b506102936106b5565b604051808260018111156102a357fe5b60ff16815260200191505060405180910390f35b3480156102c357600080fd5b506102cc6106c8565b005b3480156102da57600080fd5b5061031d600480360360208110156102f157600080fd5b81019080803573ffffffffffffffffffffffffffffffffffffffff169060200190929190505050610924565b6040518082600281111561032d57fe5b60ff16815260200191505060405180910390f35b34801561034d57600080fd5b50610356610944565b6040518082600181111561036657fe5b60ff16815260200191505060405180910390f35b34801561038657600080fd5b506103b36004803603602081101561039d57600080fd5b8101908080359060200190929190505050610957565b005b3480156103c157600080fd5b506103ee600480360360208110156103d857600080fd5b8101908080359060200190929190505050610975565b005b3480156103fc57600080fd5b5061043f6004803603602081101561041357600080fd5b81019080803573ffffffffffffffffffffffffffffffffffffffff169060200190929190505050610993565b005b34801561044d57600080fd5b5061049a6004803603604081101561046457600080fd5b81019080803573ffffffffffffffffffffffffffffffffffffffff16906020019092919080359060200190929190505050610a62565b005b3480156104a857600080fd5b506104b1610b21565b6040518082815260200191505060405180910390f35b3480156104d357600080fd5b506104dc610b27565b6040518082815260200191505060405180910390f35b3480156104fe57600080fd5b506105416004803603602081101561051557600080fd5b81019080803573ffffffffffffffffffffffffffffffffffffffff169060200190929190505050610b2d565b005b34801561054f57600080fd5b50610558610bfc565b6040518082600481111561056857fe5b60ff16815260200191505060405180910390f35b34801561058857600080fd5b50610591610c0f565b6040518082815260200191505060405180910390f35b3480156105b357600080fd5b506105e0600480360360208110156105ca57600080fd5b8101908080359060200190929190505050610c15565b005b3480156105ee57600080fd5b506106316004803603602081101561060557600080fd5b81019080803573ffffffffffffffffffffffffffffffffffffffff169060200190929190505050610c33565b005b600260009054906101000a900473ffffffffffffffffffffffffffffffffffffffff1681565b60055481565b6000809054906101000a900473ffffffffffffffffffffffffffffffffffffffff1681565b600860019054906101000a900460ff1681565b6106ac81600654610d0290919063ffffffff16565b60068190555050565b600860009054906101000a900460ff1681565b600160009054906101000a900473ffffffffffffffffffffffffffffffffffffffff1673ffffffffffffffffffffffffffffffffffffffff163373ffffffffffffffffffffffffffffffffffffffff161461078b576040517f08c379a00000000000000000000000000000000000000000000000000000000081526004018080602001828103825260158152602001807f696e76616c696420617574686f7269736174696f6e000000000000000000000081525060200191505060405180910390fd5b6000600181111561079857fe5b600860009054906101000a900460ff1660018111156107b357fe5b1415610827576040517f08c379a00000000000000000000000000000000000000000000000000000000081526004018080602001828103825260168152602001807f4163636f756e7420416c726561647920436c6f7365640000000000000000000081525060200191505060405180910390fd5b6000600860006101000a81548160ff0219169083600181111561084657fe5b021790555060606040518060400160405280600f81526020017f52656d6f766564204163636f756e74000000000000000000000000000000000081525090507f70f2aa7bee16148ac6ed8165bc3d724b8f3ffe9e2692adef6e03b78ea7937dce816040518080602001828103825283818151815260200191508051906020019080838360005b838110156108e75780820151818401526020810190506108cc565b50505050905090810190601f1680156109145780820380516001836020036101000a031916815260200191505b509250505060405180910390a150565b60036020528060005260406000206000915054906101000a900460ff1681565b600860029054906101000a900460ff1681565b61096c81600754610d0290919063ffffffff16565b60078190555050565b61098a81600754610d1c90919063ffffffff16565b60078190555050565b600060028111156109a057fe5b600360008373ffffffffffffffffffffffffffffffffffffffff1673ffffffffffffffffffffffffffffffffffffffff16815260200190815260200160002060009054906101000a900460ff1660028111156109f857fe5b14610a5f576000600360008373ffffffffffffffffffffffffffffffffffffffff1673ffffffffffffffffffffffffffffffffffffffff16815260200190815260200160002060006101000a81548160ff02191690836002811115610a5957fe5b02179055505b50565b600160009054906101000a900473ffffffffffffffffffffffffffffffffffffffff1673ffffffffffffffffffffffffffffffffffffffff163373ffffffffffffffffffffffffffffffffffffffff16148015610ac0575080600454105b15610b1d57806004600082825403925050819055508173ffffffffffffffffffffffffffffffffffffffff166108fc829081150290604051600060405180830381858888f19350505050158015610b1b573d6000803e3d6000fd5b505b5050565b60075481565b60045481565b60006002811115610b3a57fe5b600360008373ffffffffffffffffffffffffffffffffffffffff1673ffffffffffffffffffffffffffffffffffffffff16815260200190815260200160002060009054906101000a900460ff166002811115610b9257fe5b14610bf9576000600360008373ffffffffffffffffffffffffffffffffffffffff1673ffffffffffffffffffffffffffffffffffffffff16815260200190815260200160002060006101000a81548160ff02191690836002811115610bf357fe5b02179055505b50565b600860039054906101000a900460ff1681565b60065481565b610c2a81600654610d1c90919063ffffffff16565b60068190555050565b60006002811115610c4057fe5b600360008373ffffffffffffffffffffffffffffffffffffffff1673ffffffffffffffffffffffffffffffffffffffff16815260200190815260200160002060009054906101000a900460ff166002811115610c9857fe5b14610cff576000600360008373ffffffffffffffffffffffffffffffffffffffff1673ffffffffffffffffffffffffffffffffffffffff16815260200190815260200160002060006101000a81548160ff02191690836002811115610cf957fe5b02179055505b50565b6000818301905082811015610d1357fe5b80905092915050565b600082821115610d2857fe5b81830390509291505056fea165627a7a72305820cf2c4bb7c6ff58b2472865065482e5c04eb9d3d137d9bc0b15f28f4f945a4f8b0029",
  "source": "pragma solidity ^0.5.0;\n\nimport './helpers/SafeMath.sol';\n\ncontract Account {\n    using SafeMath for *;\n\n    enum AccountStatusType {\n        closed,\n        open\n    }\n\n    enum AccountAccumulationType {\n        Accumulation1,\n        Accumulation2,\n        DefinedBenefitDivision,\n        PersonalAccount,\n        Pension\n    }\n\n    enum DelegatedPermissionTypes {\n        none,\n        contributive,\n        administrative\n    }\n\n    event LogSuccessfullyCreated(string createdAccount);\n    event LogSuccessfullyRemoved(string removedAccount);\n\n    // Most of these variables should be private, and updated through functions that check ownership permissions\n\n    address payable public SuperAccountId; // contractID\n    address payable EmployeeId; // AccountHolder Address, used for permissions to update private variables\n    address public TaxOutputAddress; //Address controlled by UniSuper or ATO\n    mapping (address => DelegatedPermissionTypes) public DelegatePermissions; // List of Addresses that are allowed to contribute\n\n    uint public NetBalance;\n    uint public TimeTillReward;\n    uint public RewardSize;\n    uint public PayoutFrequency;\n\n\n    AccountStatusType public AccountStatus;\n    AccountStatusType public closedAccountType = AccountStatusType.closed;\n    AccountStatusType public openAccountType = AccountStatusType.open;\n    AccountAccumulationType public AccountType;\n\n    constructor(address payable employeeId, AccountAccumulationType accountType) public {\n        SuperAccountId = address(this);\n        EmployeeId = employeeId;\n        AccountStatus = AccountStatusType.open;\n        AccountType = accountType;\n        string memory logevent = \"logged\";\n        emit LogSuccessfullyCreated(logevent);\n    }\n\n\n    function increaseRewardSize(uint rewardIncrement) public {\n        RewardSize = RewardSize.add(rewardIncrement);\n    }\n\n    function decreaseRewardSize(uint rewardIncrement) public {\n        RewardSize = RewardSize.sub(rewardIncrement);\n    }\n\n    function increasePayoutFrequency(uint payoutFrequencyIncrement) public {\n        PayoutFrequency = PayoutFrequency.add(payoutFrequencyIncrement);\n    }\n\n    function decreasePayoutFrequency(uint payoutFrequencyIncrement) public {\n        PayoutFrequency = PayoutFrequency.sub(payoutFrequencyIncrement);\n    }\n\n    function removeAllDelegatePermissions(address thirdPartyAddress) public {\n        if(DelegatePermissions[thirdPartyAddress] != DelegatedPermissionTypes.none) {\n            DelegatePermissions[thirdPartyAddress] = DelegatedPermissionTypes.none;\n        }\n    }\n\n    function permitToContributiveOnly(address thirdPartyAddress) public {\n        if(DelegatePermissions[thirdPartyAddress] != DelegatedPermissionTypes.none) {\n            DelegatePermissions[thirdPartyAddress] = DelegatedPermissionTypes.none;\n        }\n    }\n\n    function permitToAdmistrative(address thirdPartyAddress) public {\n        if(DelegatePermissions[thirdPartyAddress] != DelegatedPermissionTypes.none) {\n            DelegatePermissions[thirdPartyAddress] = DelegatedPermissionTypes.none;\n        }\n    }\n\n    function closeAccount() public {\n        require(msg.sender == EmployeeId, 'invalid authorisation');\n        require(AccountStatus != AccountStatusType.closed, \"Account Already Closed\");\n        AccountStatus = AccountStatusType.closed;\n        string memory logevent = \"Removed Account\";\n        emit LogSuccessfullyRemoved(logevent);\n    }\n\n    function transferFunds(address payable recieverAddress, uint amount) public {\n        if (msg.sender == EmployeeId && NetBalance < amount) {\n            // Add validation that address belongs to a type(SuperAccount)\n            NetBalance -= amount;\n            recieverAddress.transfer(amount);\n        }\n\n        // Add administrative abilities and behaviours\n\n    }\n\n    // Handles exceptions and received payments\n    function () external payable {\n        // This is bad, we need to add logic in order to handle who sends money to the account and what kind of transaction it is likely to be.\n        NetBalance += msg.value;\n    }\n}\n",
  "sourcePath": "C:\\Users\\Dimitri\\Documents\\Uni\\unisuper-blockchain-poc\\contracts\\Account.sol",
  "compiler": {
    "name": "solc",
    "version": "0.5.8+commit.23d335f2.Emscripten.clang"
  },
  "schemaVersion": "3.0.16",
  "updatedAt": "2019-09-16T13:10:26.253Z",
  "devdoc": {
    "methods": {}
  },
  "userdoc": {
    "methods": {}
  }
}