{
  "contractName": "Employee",
  "abi": [
    {
      "constant": true,
      "inputs": [],
      "name": "DOB",
      "outputs": [
        {
          "name": "",
          "type": "string"
        }
      ],
      "payable": false,
      "stateMutability": "view",
      "type": "function"
    },
    {
      "constant": true,
      "inputs": [],
      "name": "Counter",
      "outputs": [
        {
          "name": "",
          "type": "uint32"
        }
      ],
      "payable": false,
      "stateMutability": "view",
      "type": "function"
    },
    {
      "constant": true,
      "inputs": [],
      "name": "EmployeeAddress",
      "outputs": [
        {
          "name": "",
          "type": "address"
        }
      ],
      "payable": false,
      "stateMutability": "view",
      "type": "function"
    },
    {
      "constant": true,
      "inputs": [],
      "name": "SpouseId",
      "outputs": [
        {
          "name": "",
          "type": "address"
        }
      ],
      "payable": false,
      "stateMutability": "view",
      "type": "function"
    },
    {
      "constant": true,
      "inputs": [],
      "name": "PayoutAddress",
      "outputs": [
        {
          "name": "",
          "type": "address"
        }
      ],
      "payable": false,
      "stateMutability": "view",
      "type": "function"
    },
    {
      "constant": true,
      "inputs": [],
      "name": "EmployeeId",
      "outputs": [
        {
          "name": "",
          "type": "address"
        }
      ],
      "payable": false,
      "stateMutability": "view",
      "type": "function"
    },
    {
      "inputs": [
        {
          "name": "dob",
          "type": "string"
        },
        {
          "name": "_empAddress",
          "type": "address"
        }
      ],
      "payable": false,
      "stateMutability": "nonpayable",
      "type": "constructor"
    },
    {
      "payable": true,
      "stateMutability": "payable",
      "type": "fallback"
    },
    {
      "anonymous": false,
      "inputs": [
        {
          "indexed": false,
          "name": "loggedAccount",
          "type": "address"
        }
      ],
      "name": "LogCreateNewAccount",
      "type": "event"
    },
    {
      "constant": false,
      "inputs": [
        {
          "name": "payoutAddress",
          "type": "address"
        }
      ],
      "name": "setPayoutAddress",
      "outputs": [],
      "payable": false,
      "stateMutability": "nonpayable",
      "type": "function"
    },
    {
      "constant": false,
      "inputs": [
        {
          "name": "spouseId",
          "type": "address"
        }
      ],
      "name": "addSpouse",
      "outputs": [],
      "payable": false,
      "stateMutability": "nonpayable",
      "type": "function"
    },
    {
      "constant": false,
      "inputs": [
        {
          "name": "spouseId",
          "type": "address"
        }
      ],
      "name": "removeSpouse",
      "outputs": [],
      "payable": false,
      "stateMutability": "nonpayable",
      "type": "function"
    },
    {
      "constant": false,
      "inputs": [
        {
          "name": "payoutAddress",
          "type": "address"
        }
      ],
      "name": "changePayoutAddress",
      "outputs": [],
      "payable": false,
      "stateMutability": "nonpayable",
      "type": "function"
    },
    {
      "constant": false,
      "inputs": [],
      "name": "createNewAccount",
      "outputs": [],
      "payable": false,
      "stateMutability": "nonpayable",
      "type": "function"
    },
    {
      "constant": false,
      "inputs": [
        {
          "name": "accountAddress",
          "type": "address"
        }
      ],
      "name": "deleteAccount",
      "outputs": [],
      "payable": false,
      "stateMutability": "nonpayable",
      "type": "function"
    },
    {
      "constant": false,
      "inputs": [
        {
          "name": "payTo",
          "type": "address"
        },
        {
          "name": "payFrom",
          "type": "address"
        },
        {
          "name": "amount",
          "type": "uint256"
        }
      ],
      "name": "transferFundsBetweenAccounts",
      "outputs": [],
      "payable": false,
      "stateMutability": "nonpayable",
      "type": "function"
    },
    {
      "constant": false,
      "inputs": [
        {
          "name": "accountAddress",
          "type": "address"
        },
        {
          "name": "amount",
          "type": "uint256"
        }
      ],
      "name": "payVoluntaryContribution",
      "outputs": [],
      "payable": false,
      "stateMutability": "nonpayable",
      "type": "function"
    },
    {
      "constant": true,
      "inputs": [],
      "name": "getArrayOfAccounts",
      "outputs": [
        {
          "name": "",
          "type": "address[]"
        }
      ],
      "payable": false,
      "stateMutability": "view",
      "type": "function"
    },
    {
      "constant": true,
      "inputs": [
        {
          "name": "accountAddress",
          "type": "address"
        }
      ],
      "name": "checkAccountClosed",
      "outputs": [
        {
          "name": "",
          "type": "bool"
        }
      ],
      "payable": false,
      "stateMutability": "view",
      "type": "function"
    }
  ],
  "bytecode": "0x60806040523480156200001157600080fd5b5060405162002c2d38038062002c2d833981018060405260408110156200003757600080fd5b8101908080516401000000008111156200005057600080fd5b828101905060208101848111156200006757600080fd5b81518560018202830111640100000000821117156200008557600080fd5b50509291906020018051906020019092919050505080600260006101000a81548173ffffffffffffffffffffffffffffffffffffffff021916908373ffffffffffffffffffffffffffffffffffffffff160217905550306000806101000a81548173ffffffffffffffffffffffffffffffffffffffff021916908373ffffffffffffffffffffffffffffffffffffffff1602179055508160049080519060200190620001339291906200015e565b506000600360146101000a81548163ffffffff021916908363ffffffff16021790555050506200020d565b828054600181600116156101000203166002900490600052602060002090601f016020900481019282601f10620001a157805160ff1916838001178555620001d2565b82800160010185558215620001d2579182015b82811115620001d1578251825591602001919060010190620001b4565b5b509050620001e19190620001e5565b5090565b6200020a91905b8082111562000206576000816000905550600101620001ec565b5090565b90565b612a10806200021d6000396000f3fe6080604052600436106200010a5760003560e01c8063865c992f1162000097578063b4a012391162000061578063b4a01239146200055b578063c4d430a514620005b5578063d3e5b9bb146200060a578063d5b423551462000669576200010a565b8063865c992f14620003e557806390f42f96146200043f5780639ae884cc14620004995780639d93579314620004ee576200010a565b80634c1b64cb11620000d95780634c1b64cb14620002665780634eeca07614620002bb57806353aacda114620002f55780637ee7b6281462000366576200010a565b80630426c697146200010c5780630870035f146200016157806333ea51a8146200017b5780633e27787714620001d0575b005b3480156200011957600080fd5b506200015f600480360360208110156200013257600080fd5b81019080803573ffffffffffffffffffffffffffffffffffffffff169060200190929190505050620006c3565b005b3480156200016e57600080fd5b5062000179620007cd565b005b3480156200018857600080fd5b50620001ce60048036036020811015620001a157600080fd5b81019080803573ffffffffffffffffffffffffffffffffffffffff16906020019092919050505062000ade565b005b348015620001dd57600080fd5b50620001e862000cac565b6040518080602001828103825283818151815260200191508051906020019080838360005b838110156200022a5780820151818401526020810190506200020d565b50505050905090810190601f168015620002585780820380516001836020036101000a031916815260200191505b509250505060405180910390f35b3480156200027357600080fd5b50620002b9600480360360208110156200028c57600080fd5b81019080803573ffffffffffffffffffffffffffffffffffffffff16906020019092919050505062000d4e565b005b348015620002c857600080fd5b50620002d362000fdb565b604051808263ffffffff1663ffffffff16815260200191505060405180910390f35b3480156200030257600080fd5b506200030d62000ff1565b6040518080602001828103825283818151815260200191508051906020019060200280838360005b838110156200035257808201518184015260208101905062000335565b505050509050019250505060405180910390f35b3480156200037357600080fd5b50620003e3600480360360608110156200038c57600080fd5b81019080803573ffffffffffffffffffffffffffffffffffffffff169060200190929190803573ffffffffffffffffffffffffffffffffffffffff1690602001909291908035906020019092919050505062001081565b005b348015620003f257600080fd5b50620003fd62001350565b604051808273ffffffffffffffffffffffffffffffffffffffff1673ffffffffffffffffffffffffffffffffffffffff16815260200191505060405180910390f35b3480156200044c57600080fd5b506200045762001376565b604051808273ffffffffffffffffffffffffffffffffffffffff1673ffffffffffffffffffffffffffffffffffffffff16815260200191505060405180910390f35b348015620004a657600080fd5b50620004ec60048036036020811015620004bf57600080fd5b81019080803573ffffffffffffffffffffffffffffffffffffffff1690602001909291905050506200139c565b005b348015620004fb57600080fd5b5062000541600480360360208110156200051457600080fd5b81019080803573ffffffffffffffffffffffffffffffffffffffff1690602001909291905050506200154f565b604051808215151515815260200191505060405180910390f35b3480156200056857600080fd5b506200057362001655565b604051808273ffffffffffffffffffffffffffffffffffffffff1673ffffffffffffffffffffffffffffffffffffffff16815260200191505060405180910390f35b348015620005c257600080fd5b506200060860048036036020811015620005db57600080fd5b81019080803573ffffffffffffffffffffffffffffffffffffffff1690602001909291905050506200167b565b005b3480156200061757600080fd5b5062000667600480360360408110156200063057600080fd5b81019080803573ffffffffffffffffffffffffffffffffffffffff1690602001909291908035906020019092919050505062001888565b005b3480156200067657600080fd5b506200068162001a14565b604051808273ffffffffffffffffffffffffffffffffffffffff1673ffffffffffffffffffffffffffffffffffffffff16815260200191505060405180910390f35b600260009054906101000a900473ffffffffffffffffffffffffffffffffffffffff168073ffffffffffffffffffffffffffffffffffffffff163373ffffffffffffffffffffffffffffffffffffffff161462000788576040517f08c379a00000000000000000000000000000000000000000000000000000000081526004018080602001828103825260168152602001807f496e76616c69642041757468656e7469636174696f6e0000000000000000000081525060200191505060405180910390fd5b81600360006101000a81548173ffffffffffffffffffffffffffffffffffffffff021916908373ffffffffffffffffffffffffffffffffffffffff1602179055505050565b600260009054906101000a900473ffffffffffffffffffffffffffffffffffffffff168073ffffffffffffffffffffffffffffffffffffffff163373ffffffffffffffffffffffffffffffffffffffff161462000892576040517f08c379a00000000000000000000000000000000000000000000000000000000081526004018080602001828103825260168152602001807f496e76616c69642041757468656e7469636174696f6e0000000000000000000081525060200191505060405180910390fd5b600260009054906101000a900473ffffffffffffffffffffffffffffffffffffffff1673ffffffffffffffffffffffffffffffffffffffff163373ffffffffffffffffffffffffffffffffffffffff161462000956576040517f08c379a00000000000000000000000000000000000000000000000000000000081526004018080602001828103825260158152602001807f496e76616c696420417574686f72697a6174696f6e000000000000000000000081525060200191505060405180910390fd5b60008060009054906101000a900473ffffffffffffffffffffffffffffffffffffffff1660006040516200098a9062001a39565b808373ffffffffffffffffffffffffffffffffffffffff1673ffffffffffffffffffffffffffffffffffffffff168152602001826004811115620009ca57fe5b60ff16815260200192505050604051809103906000f080158015620009f3573d6000803e3d6000fd5b50905080600560008373ffffffffffffffffffffffffffffffffffffffff1673ffffffffffffffffffffffffffffffffffffffff16815260200190815260200160002060006101000a81548173ffffffffffffffffffffffffffffffffffffffff021916908373ffffffffffffffffffffffffffffffffffffffff16021790555060068190806001815401808255809150509060018203906000526020600020016000909192909190916101000a81548173ffffffffffffffffffffffffffffffffffffffff021916908373ffffffffffffffffffffffffffffffffffffffff160217905550505050565b600260009054906101000a900473ffffffffffffffffffffffffffffffffffffffff168073ffffffffffffffffffffffffffffffffffffffff163373ffffffffffffffffffffffffffffffffffffffff161462000ba3576040517f08c379a00000000000000000000000000000000000000000000000000000000081526004018080602001828103825260168152602001807f496e76616c69642041757468656e7469636174696f6e0000000000000000000081525060200191505060405180910390fd5b600260009054906101000a900473ffffffffffffffffffffffffffffffffffffffff1673ffffffffffffffffffffffffffffffffffffffff163373ffffffffffffffffffffffffffffffffffffffff161462000c67576040517f08c379a00000000000000000000000000000000000000000000000000000000081526004018080602001828103825260158152602001807f496e76616c696420417574686f72697a6174696f6e000000000000000000000081525060200191505060405180910390fd5b81600360006101000a81548173ffffffffffffffffffffffffffffffffffffffff021916908373ffffffffffffffffffffffffffffffffffffffff1602179055505050565b60048054600181600116156101000203166002900480601f01602080910402602001604051908101604052809291908181526020018280546001816001161561010002031660029004801562000d465780601f1062000d1a5761010080835404028352916020019162000d46565b820191906000526020600020905b81548152906001019060200180831162000d2857829003601f168201915b505050505081565b600260009054906101000a900473ffffffffffffffffffffffffffffffffffffffff168073ffffffffffffffffffffffffffffffffffffffff163373ffffffffffffffffffffffffffffffffffffffff161462000e13576040517f08c379a00000000000000000000000000000000000000000000000000000000081526004018080602001828103825260168152602001807f496e76616c69642041757468656e7469636174696f6e0000000000000000000081525060200191505060405180910390fd5b600073ffffffffffffffffffffffffffffffffffffffff16600560008473ffffffffffffffffffffffffffffffffffffffff1673ffffffffffffffffffffffffffffffffffffffff16815260200190815260200160002060009054906101000a900473ffffffffffffffffffffffffffffffffffffffff1673ffffffffffffffffffffffffffffffffffffffff16141562000f16576040517f08c379a000000000000000000000000000000000000000000000000000000000815260040180806020018281038252601c8152602001807f4163636f756e7420686173206e6f74206265656e20637265617465640000000081525060200191505060405180910390fd5b600560008373ffffffffffffffffffffffffffffffffffffffff1673ffffffffffffffffffffffffffffffffffffffff16815260200190815260200160002060009054906101000a900473ffffffffffffffffffffffffffffffffffffffff1673ffffffffffffffffffffffffffffffffffffffff16636dd22fc66040518163ffffffff1660e01b8152600401600060405180830381600087803b15801562000fbe57600080fd5b505af115801562000fd3573d6000803e3d6000fd5b505050505050565b600360149054906101000a900463ffffffff1681565b606060068054806020026020016040519081016040528092919081815260200182805480156200107757602002820191906000526020600020905b8160009054906101000a900473ffffffffffffffffffffffffffffffffffffffff1673ffffffffffffffffffffffffffffffffffffffff16815260200190600101908083116200102c575b5050505050905090565b600260009054906101000a900473ffffffffffffffffffffffffffffffffffffffff168073ffffffffffffffffffffffffffffffffffffffff163373ffffffffffffffffffffffffffffffffffffffff161462001146576040517f08c379a00000000000000000000000000000000000000000000000000000000081526004018080602001828103825260168152602001807f496e76616c69642041757468656e7469636174696f6e0000000000000000000081525060200191505060405180910390fd5b6001808111156200115357fe5b600560008673ffffffffffffffffffffffffffffffffffffffff1673ffffffffffffffffffffffffffffffffffffffff16815260200190815260200160002060009054906101000a900473ffffffffffffffffffffffffffffffffffffffff1673ffffffffffffffffffffffffffffffffffffffff1663463da8be6040518163ffffffff1660e01b815260040160206040518083038186803b158015620011f957600080fd5b505afa1580156200120e573d6000803e3d6000fd5b505050506040513d60208110156200122557600080fd5b810190808051906020019092919050505060018111156200124257fe5b14156200134a57600560008473ffffffffffffffffffffffffffffffffffffffff1673ffffffffffffffffffffffffffffffffffffffff16815260200190815260200160002060009054906101000a900473ffffffffffffffffffffffffffffffffffffffff1673ffffffffffffffffffffffffffffffffffffffff1663990dc9db85846040518363ffffffff1660e01b8152600401808373ffffffffffffffffffffffffffffffffffffffff1673ffffffffffffffffffffffffffffffffffffffff16815260200182815260200192505050600060405180830381600087803b1580156200133057600080fd5b505af115801562001345573d6000803e3d6000fd5b505050505b50505050565b600260009054906101000a900473ffffffffffffffffffffffffffffffffffffffff1681565b600160009054906101000a900473ffffffffffffffffffffffffffffffffffffffff1681565b600260009054906101000a900473ffffffffffffffffffffffffffffffffffffffff168073ffffffffffffffffffffffffffffffffffffffff163373ffffffffffffffffffffffffffffffffffffffff161462001461576040517f08c379a00000000000000000000000000000000000000000000000000000000081526004018080602001828103825260168152602001807f496e76616c69642041757468656e7469636174696f6e0000000000000000000081525060200191505060405180910390fd5b600073ffffffffffffffffffffffffffffffffffffffff16600160009054906101000a900473ffffffffffffffffffffffffffffffffffffffff1673ffffffffffffffffffffffffffffffffffffffff16146200150a576040517f08c379a0000000000000000000000000000000000000000000000000000000008152600401808060200182810382526028815260200180620029936028913960400191505060405180910390fd5b81600160006101000a81548173ffffffffffffffffffffffffffffffffffffffff021916908373ffffffffffffffffffffffffffffffffffffffff1602179055505050565b60008060018111156200155e57fe5b600560008473ffffffffffffffffffffffffffffffffffffffff1673ffffffffffffffffffffffffffffffffffffffff16815260200190815260200160002060009054906101000a900473ffffffffffffffffffffffffffffffffffffffff1673ffffffffffffffffffffffffffffffffffffffff1663463da8be6040518163ffffffff1660e01b815260040160206040518083038186803b1580156200160457600080fd5b505afa15801562001619573d6000803e3d6000fd5b505050506040513d60208110156200163057600080fd5b810190808051906020019092919050505060018111156200164d57fe5b149050919050565b600360009054906101000a900473ffffffffffffffffffffffffffffffffffffffff1681565b600260009054906101000a900473ffffffffffffffffffffffffffffffffffffffff168073ffffffffffffffffffffffffffffffffffffffff163373ffffffffffffffffffffffffffffffffffffffff161462001740576040517f08c379a00000000000000000000000000000000000000000000000000000000081526004018080602001828103825260168152602001807f496e76616c69642041757468656e7469636174696f6e0000000000000000000081525060200191505060405180910390fd5b600073ffffffffffffffffffffffffffffffffffffffff16600160009054906101000a900473ffffffffffffffffffffffffffffffffffffffff1673ffffffffffffffffffffffffffffffffffffffff161415620017ea576040517f08c379a000000000000000000000000000000000000000000000000000000000815260040180806020018281038252602a815260200180620029bb602a913960400191505060405180910390fd5b8173ffffffffffffffffffffffffffffffffffffffff16600160009054906101000a900473ffffffffffffffffffffffffffffffffffffffff1673ffffffffffffffffffffffffffffffffffffffff16141562001884576000600160006101000a81548173ffffffffffffffffffffffffffffffffffffffff021916908373ffffffffffffffffffffffffffffffffffffffff1602179055505b5050565b600260009054906101000a900473ffffffffffffffffffffffffffffffffffffffff168073ffffffffffffffffffffffffffffffffffffffff163373ffffffffffffffffffffffffffffffffffffffff16146200194d576040517f08c379a00000000000000000000000000000000000000000000000000000000081526004018080602001828103825260168152602001807f496e76616c69642041757468656e7469636174696f6e0000000000000000000081525060200191505060405180910390fd5b6000809054906101000a900473ffffffffffffffffffffffffffffffffffffffff1673ffffffffffffffffffffffffffffffffffffffff163373ffffffffffffffffffffffffffffffffffffffff16148015620019c05750813073ffffffffffffffffffffffffffffffffffffffff1631115b1562001a0f578273ffffffffffffffffffffffffffffffffffffffff166108fc839081150290604051600060405180830381858888f1935050505015801562001a0d573d6000803e3d6000fd5b505b505050565b6000809054906101000a900473ffffffffffffffffffffffffffffffffffffffff1681565b610f4b8062001a488339019056fe60806040526000600860016101000a81548160ff0219169083600181111561002357fe5b02179055506001600860026101000a81548160ff0219169083600181111561004757fe5b021790555034801561005857600080fd5b50604051604080610f4b8339810180604052604081101561007857600080fd5b810190808051906020019092919080519060200190929190505050306000806101000a81548173ffffffffffffffffffffffffffffffffffffffff021916908373ffffffffffffffffffffffffffffffffffffffff16021790555081600160006101000a81548173ffffffffffffffffffffffffffffffffffffffff021916908373ffffffffffffffffffffffffffffffffffffffff1602179055506001600860006101000a81548160ff0219169083600181111561013357fe5b021790555080600860036101000a81548160ff0219169083600481111561015657fe5b021790555060606040518060400160405280600681526020017f6c6f67676564000000000000000000000000000000000000000000000000000081525090507f1ab379b40005ad9e7ee28cc5354473bfe302c16d3f55bc66d50210a954c19190816040518080602001828103825283818151815260200191508051906020019080838360005b838110156101f75780820151818401526020810190506101dc565b50505050905090810190601f1680156102245780820380516001836020036101000a031916815260200191505b509250505060405180910390a1505050610d08806102436000396000f3fe6080604052600436106101145760003560e01c80637d34602d116100a05780639e2c1b16116100645780639e2c1b16146104bc578063a98521a9146104e7578063df50e19d14610538578063dfd44a9514610563578063ebd2a8641461059e57610114565b80637d34602d1461036f5780637d57daad146103aa57806383be1bf1146103e5578063990dc9db146104365780639aee2e9a1461049157610114565b806339bfba7e116100e757806339bfba7e14610238578063463da8be146102735780636dd22fc6146102ac5780636fd7eb61146102c35780637611c5741461033657610114565b806326107a381461012657806326c698011461017d57806329a83c76146101a85780632aee5fb2146101ff575b34600460008282540192505081905550005b34801561013257600080fd5b5061013b6105ef565b604051808273ffffffffffffffffffffffffffffffffffffffff1673ffffffffffffffffffffffffffffffffffffffff16815260200191505060405180910390f35b34801561018957600080fd5b50610192610615565b6040518082815260200191505060405180910390f35b3480156101b457600080fd5b506101bd61061b565b604051808273ffffffffffffffffffffffffffffffffffffffff1673ffffffffffffffffffffffffffffffffffffffff16815260200191505060405180910390f35b34801561020b57600080fd5b50610214610640565b6040518082600181111561022457fe5b60ff16815260200191505060405180910390f35b34801561024457600080fd5b506102716004803603602081101561025b57600080fd5b8101908080359060200190929190505050610653565b005b34801561027f57600080fd5b50610288610671565b6040518082600181111561029857fe5b60ff16815260200191505060405180910390f35b3480156102b857600080fd5b506102c1610684565b005b3480156102cf57600080fd5b50610312600480360360208110156102e657600080fd5b81019080803573ffffffffffffffffffffffffffffffffffffffff1690602001909291905050506108e0565b6040518082600281111561032257fe5b60ff16815260200191505060405180910390f35b34801561034257600080fd5b5061034b610900565b6040518082600181111561035b57fe5b60ff16815260200191505060405180910390f35b34801561037b57600080fd5b506103a86004803603602081101561039257600080fd5b8101908080359060200190929190505050610913565b005b3480156103b657600080fd5b506103e3600480360360208110156103cd57600080fd5b8101908080359060200190929190505050610931565b005b3480156103f157600080fd5b506104346004803603602081101561040857600080fd5b81019080803573ffffffffffffffffffffffffffffffffffffffff16906020019092919050505061094f565b005b34801561044257600080fd5b5061048f6004803603604081101561045957600080fd5b81019080803573ffffffffffffffffffffffffffffffffffffffff16906020019092919080359060200190929190505050610a1e565b005b34801561049d57600080fd5b506104a6610add565b6040518082815260200191505060405180910390f35b3480156104c857600080fd5b506104d1610ae3565b6040518082815260200191505060405180910390f35b3480156104f357600080fd5b506105366004803603602081101561050a57600080fd5b81019080803573ffffffffffffffffffffffffffffffffffffffff169060200190929190505050610ae9565b005b34801561054457600080fd5b5061054d610bb8565b6040518082815260200191505060405180910390f35b34801561056f57600080fd5b5061059c6004803603602081101561058657600080fd5b8101908080359060200190929190505050610bbe565b005b3480156105aa57600080fd5b506105ed600480360360208110156105c157600080fd5b81019080803573ffffffffffffffffffffffffffffffffffffffff169060200190929190505050610bdc565b005b600260009054906101000a900473ffffffffffffffffffffffffffffffffffffffff1681565b60055481565b6000809054906101000a900473ffffffffffffffffffffffffffffffffffffffff1681565b600860019054906101000a900460ff1681565b61066881600654610cab90919063ffffffff16565b60068190555050565b600860009054906101000a900460ff1681565b600160009054906101000a900473ffffffffffffffffffffffffffffffffffffffff1673ffffffffffffffffffffffffffffffffffffffff163373ffffffffffffffffffffffffffffffffffffffff1614610747576040517f08c379a00000000000000000000000000000000000000000000000000000000081526004018080602001828103825260158152602001807f696e76616c696420617574686f7269736174696f6e000000000000000000000081525060200191505060405180910390fd5b6000600181111561075457fe5b600860009054906101000a900460ff16600181111561076f57fe5b14156107e3576040517f08c379a00000000000000000000000000000000000000000000000000000000081526004018080602001828103825260168152602001807f4163636f756e7420416c726561647920436c6f7365640000000000000000000081525060200191505060405180910390fd5b6000600860006101000a81548160ff0219169083600181111561080257fe5b021790555060606040518060400160405280600f81526020017f52656d6f766564204163636f756e74000000000000000000000000000000000081525090507f70f2aa7bee16148ac6ed8165bc3d724b8f3ffe9e2692adef6e03b78ea7937dce816040518080602001828103825283818151815260200191508051906020019080838360005b838110156108a3578082015181840152602081019050610888565b50505050905090810190601f1680156108d05780820380516001836020036101000a031916815260200191505b509250505060405180910390a150565b60036020528060005260406000206000915054906101000a900460ff1681565b600860029054906101000a900460ff1681565b61092881600754610cab90919063ffffffff16565b60078190555050565b61094681600754610cc590919063ffffffff16565b60078190555050565b6000600281111561095c57fe5b600360008373ffffffffffffffffffffffffffffffffffffffff1673ffffffffffffffffffffffffffffffffffffffff16815260200190815260200160002060009054906101000a900460ff1660028111156109b457fe5b14610a1b576000600360008373ffffffffffffffffffffffffffffffffffffffff1673ffffffffffffffffffffffffffffffffffffffff16815260200190815260200160002060006101000a81548160ff02191690836002811115610a1557fe5b02179055505b50565b600160009054906101000a900473ffffffffffffffffffffffffffffffffffffffff1673ffffffffffffffffffffffffffffffffffffffff163373ffffffffffffffffffffffffffffffffffffffff16148015610a7c575080600454105b15610ad957806004600082825403925050819055508173ffffffffffffffffffffffffffffffffffffffff166108fc829081150290604051600060405180830381858888f19350505050158015610ad7573d6000803e3d6000fd5b505b5050565b60075481565b60045481565b60006002811115610af657fe5b600360008373ffffffffffffffffffffffffffffffffffffffff1673ffffffffffffffffffffffffffffffffffffffff16815260200190815260200160002060009054906101000a900460ff166002811115610b4e57fe5b14610bb5576000600360008373ffffffffffffffffffffffffffffffffffffffff1673ffffffffffffffffffffffffffffffffffffffff16815260200190815260200160002060006101000a81548160ff02191690836002811115610baf57fe5b02179055505b50565b60065481565b610bd381600654610cc590919063ffffffff16565b60068190555050565b60006002811115610be957fe5b600360008373ffffffffffffffffffffffffffffffffffffffff1673ffffffffffffffffffffffffffffffffffffffff16815260200190815260200160002060009054906101000a900460ff166002811115610c4157fe5b14610ca8576000600360008373ffffffffffffffffffffffffffffffffffffffff1673ffffffffffffffffffffffffffffffffffffffff16815260200190815260200160002060006101000a81548160ff02191690836002811115610ca257fe5b02179055505b50565b6000818301905082811015610cbc57fe5b80905092915050565b600082821115610cd157fe5b81830390509291505056fea165627a7a7230582064c48d55167a97065f95545b767fc96046bde4a8687e82417263986af4017d000029656d706c6f79656520616c72656164792068617320612073706f7573652072656769737465726564656d706c6f79656520646f6573206e6f74206861766520612073706f7573652072656769737465726564a165627a7a72305820b6e89f6b509b700a4fdcdfe3a84e315927fd08ca817f8c3a93a91465c0852a290029",
  "source": "pragma solidity ^0.5.0;\n\nimport './helpers/SafeMath.sol';\nimport './Account.sol';\n\ncontract Employee {\n    using SafeMath for *;\n\n    enum AccountStatusType {\n        closed,\n        open\n    }\n    enum AccountAccumulationType {\n        Accumulation1,\n        Accumulation2,\n        DefinedBenefitDivision,\n        PersonalAccount,\n        Pension\n    }\n\n    address payable public EmployeeId;\n    address public SpouseId;\n    address payable public EmployeeAddress;\n    address public PayoutAddress;\n    uint32 public Counter;\n    string public DOB;\n\n    mapping (address => Account) Accounts;\n    Account[] arrayOfAccounts;\n    event LogCreateNewAccount(Account loggedAccount);\n\n    constructor(string memory dob, address payable _empAddress) public {\n        EmployeeAddress = _empAddress;\n        EmployeeId = address(this);\n        DOB = dob;\n        Counter = 0;\n    }\n\n//Modifier for owner access permission\n    modifier onlyOwner (address _address){\n        require(msg.sender == _address, \"Invalid Authentication\");\n    _;\n    }\n\n    function setPayoutAddress(address payoutAddress) public onlyOwner(EmployeeAddress){\n        require(msg.sender == EmployeeAddress, \"Invalid Authorization\");\n        PayoutAddress = payoutAddress;\n    }\n\n    function addSpouse(address payable spouseId) public onlyOwner(EmployeeAddress){\n        require(SpouseId == address(0), \"employee already has a spouse registered\");\n        SpouseId = spouseId;\n    }\n\n    function removeSpouse(address payable spouseId) public onlyOwner(EmployeeAddress){\n        require(SpouseId != address(0), \"employee does not have a spouse registered\");\n        if(SpouseId == spouseId) {\n            SpouseId = address(0);\n        }\n    }\n\n    function changePayoutAddress(address payable payoutAddress) public onlyOwner(EmployeeAddress){\n        PayoutAddress = payoutAddress;\n    }\n\n    function createNewAccount() public onlyOwner(EmployeeAddress){\n        require(msg.sender == EmployeeAddress, \"Invalid Authorization\");\n        Account tempAccountStore = new Account(EmployeeId, Account.AccountAccumulationType.Accumulation1);\n        Accounts[address(tempAccountStore)] = tempAccountStore;\n        arrayOfAccounts.push(tempAccountStore);\n    }\n\n    function deleteAccount(address accountAddress) public onlyOwner(EmployeeAddress){\n        require(address(Accounts[accountAddress]) != address(0), 'Account has not been created');\n        Accounts[accountAddress].closeAccount();\n    }\n\n\n    function transferFundsBetweenAccounts(address payable payTo, address payable payFrom, uint amount) public onlyOwner(EmployeeAddress){\n        if(Accounts[payTo].AccountStatus() == Account.AccountStatusType.open){\n            Accounts[payFrom].transferFunds(payTo, amount);\n        }\n    }\n\n    function payVoluntaryContribution(address payable accountAddress, uint amount) public onlyOwner(EmployeeAddress){\n        if (msg.sender == EmployeeId && address(this).balance > amount) {\n            accountAddress.transfer(amount);\n        }\n\n\n        // Add administrative abilities and behaviours\n\n    }\n\n    // Creating testable code\n\n    function getArrayOfAccounts() public view  returns (Account[] memory) {\n        return arrayOfAccounts;\n    }\n\n    function checkAccountClosed(address accountAddress) public view returns (bool) {\n        return Accounts[accountAddress].AccountStatus() == Account.AccountStatusType.closed;\n    }\n\n    function () external payable {}\n}\n",
  "sourcePath": "C:\\Users\\Dimitri\\Documents\\Uni\\unisuper-blockchain-poc\\contracts\\Employee.sol",
  "compiler": {
    "name": "solc",
    "version": "0.5.8+commit.23d335f2.Emscripten.clang"
  },
  "schemaVersion": "3.0.16",
  "updatedAt": "2019-09-14T09:40:41.682Z",
  "devdoc": {
    "methods": {}
  },
  "userdoc": {
    "methods": {}
  }
}