{
  "contractName": "UniSuperLedger",
  "abi": [
    {
      "constant": false,
      "inputs": [
        {
          "name": "_dob",
          "type": "string"
        },
        {
          "name": "_addressEmployee",
          "type": "address"
        },
        {
          "name": "_username",
          "type": "string"
        }
      ],
      "name": "createEmployeeId",
      "outputs": [],
      "payable": false,
      "stateMutability": "nonpayable",
      "type": "function"
    },
    {
      "constant": true,
      "inputs": [
        {
          "name": "_username",
          "type": "string"
        }
      ],
      "name": "getEmployeeContractAddress",
      "outputs": [
        {
          "name": "eAddress",
          "type": "address"
        }
      ],
      "payable": false,
      "stateMutability": "view",
      "type": "function"
    }
  ],
  "bytecode": "0x608060405234801561001057600080fd5b50612b48806100206000396000f3fe608060405234801561001057600080fd5b50600436106100365760003560e01c8063c70478ef1461003b578063fe9633ba146101ad575b600080fd5b6101ab6004803603606081101561005157600080fd5b810190808035906020019064010000000081111561006e57600080fd5b82018360208201111561008057600080fd5b803590602001918460018302840111640100000000831117156100a257600080fd5b91908080601f016020809104026020016040519081016040528093929190818152602001838380828437600081840152601f19601f820116905080830192505050505050509192919290803573ffffffffffffffffffffffffffffffffffffffff1690602001909291908035906020019064010000000081111561012557600080fd5b82018360208201111561013757600080fd5b8035906020019184600183028401116401000000008311171561015957600080fd5b91908080601f016020809104026020016040519081016040528093929190818152602001838380828437600081840152601f19601f8201169050808301925050505050505091929192905050506102a8565b005b610266600480360360208110156101c357600080fd5b81019080803590602001906401000000008111156101e057600080fd5b8201836020820111156101f257600080fd5b8035906020019184600183028401116401000000008311171561021457600080fd5b91908080601f016020809104026020016040519081016040528093929190818152602001838380828437600081840152601f19601f820116905080830192505050505050509192919290505050610593565b604051808273ffffffffffffffffffffffffffffffffffffffff1673ffffffffffffffffffffffffffffffffffffffff16815260200191505060405180910390f35b80600073ffffffffffffffffffffffffffffffffffffffff166000826040518082805190602001908083835b602083106102f757805182526020820191506020810190506020830392506102d4565b6001836020036101000a038019825116818451168082178552505050505050905001915050908152602001604051809103902060009054906101000a900473ffffffffffffffffffffffffffffffffffffffff1673ffffffffffffffffffffffffffffffffffffffff16146103d4576040517f08c379a00000000000000000000000000000000000000000000000000000000081526004018080602001828103825260188152602001807f557365726e616d6520616c72656164792074616b656e2021000000000000000081525060200191505060405180910390fd5b600084846040516103e490610625565b80806020018373ffffffffffffffffffffffffffffffffffffffff1673ffffffffffffffffffffffffffffffffffffffff168152602001828103825284818151815260200191508051906020019080838360005b83811015610453578082015181840152602081019050610438565b50505050905090810190601f1680156104805780820380516001836020036101000a031916815260200191505b509350505050604051809103906000f0801580156104a2573d6000803e3d6000fd5b509050806000846040518082805190602001908083835b602083106104dc57805182526020820191506020810190506020830392506104b9565b6001836020036101000a038019825116818451168082178552505050505050905001915050908152602001604051809103902060006101000a81548173ffffffffffffffffffffffffffffffffffffffff021916908373ffffffffffffffffffffffffffffffffffffffff160217905550600183908060018154018082558091505090600182039060005260206000200160009091929091909150908051906020019061058a929190610632565b50505050505050565b600080826040518082805190602001908083835b602083106105ca57805182526020820191506020810190506020830392506105a7565b6001836020036101000a038019825116818451168082178552505050505050905001915050908152602001604051809103902060009054906101000a900473ffffffffffffffffffffffffffffffffffffffff169050919050565b612445806106d883390190565b828054600181600116156101000203166002900490600052602060002090601f016020900481019282601f1061067357805160ff19168380011785556106a1565b828001600101855582156106a1579182015b828111156106a0578251825591602001919060010190610685565b5b5090506106ae91906106b2565b5090565b6106d491905b808211156106d05760008160009055506001016106b8565b5090565b9056fe60806040523480156200001157600080fd5b506040516200244538038062002445833981018060405260408110156200003757600080fd5b8101908080516401000000008111156200005057600080fd5b828101905060208101848111156200006757600080fd5b81518560018202830111640100000000821117156200008557600080fd5b50509291906020018051906020019092919050505080600260006101000a81548173ffffffffffffffffffffffffffffffffffffffff021916908373ffffffffffffffffffffffffffffffffffffffff160217905550306000806101000a81548173ffffffffffffffffffffffffffffffffffffffff021916908373ffffffffffffffffffffffffffffffffffffffff1602179055508160049080519060200190620001339291906200015e565b506000600360146101000a81548163ffffffff021916908363ffffffff16021790555050506200020d565b828054600181600116156101000203166002900490600052602060002090601f016020900481019282601f10620001a157805160ff1916838001178555620001d2565b82800160010185558215620001d2579182015b82811115620001d1578251825591602001919060010190620001b4565b5b509050620001e19190620001e5565b5090565b6200020a91905b8082111562000206576000816000905550600101620001ec565b5090565b90565b612228806200021d6000396000f3fe6080604052600436106100dd5760003560e01c8063865c992f1161007f578063b4a0123911610059578063b4a012391461045f578063c4d430a5146104b6578063d3e5b9bb14610507578063d5b4235514610562576100dd565b8063865c992f1461036057806390f42f96146103b75780639ae884cc1461040e576100dd565b80633e277877116100bb5780633e277877146101985780634c1b64cb1461022857806353aacda1146102795780637ee7b628146102e5576100dd565b80630426c697146100df5780630870035f1461013057806333ea51a814610147575b005b3480156100eb57600080fd5b5061012e6004803603602081101561010257600080fd5b81019080803573ffffffffffffffffffffffffffffffffffffffff1690602001909291905050506105b9565b005b34801561013c57600080fd5b506101456106c2565b005b34801561015357600080fd5b506101966004803603602081101561016a57600080fd5b81019080803573ffffffffffffffffffffffffffffffffffffffff1690602001909291905050506108a4565b005b3480156101a457600080fd5b506101ad6109ad565b6040518080602001828103825283818151815260200191508051906020019080838360005b838110156101ed5780820151818401526020810190506101d2565b50505050905090810190601f16801561021a5780820380516001836020036101000a031916815260200191505b509250505060405180910390f35b34801561023457600080fd5b506102776004803603602081101561024b57600080fd5b81019080803573ffffffffffffffffffffffffffffffffffffffff169060200190929190505050610a4b565b005b34801561028557600080fd5b5061028e610bd2565b6040518080602001828103825283818151815260200191508051906020019060200280838360005b838110156102d15780820151818401526020810190506102b6565b505050509050019250505060405180910390f35b3480156102f157600080fd5b5061035e6004803603606081101561030857600080fd5b81019080803573ffffffffffffffffffffffffffffffffffffffff169060200190929190803573ffffffffffffffffffffffffffffffffffffffff16906020019092919080359060200190929190505050610c60565b005b34801561036c57600080fd5b50610375610f26565b604051808273ffffffffffffffffffffffffffffffffffffffff1673ffffffffffffffffffffffffffffffffffffffff16815260200191505060405180910390f35b3480156103c357600080fd5b506103cc610f4c565b604051808273ffffffffffffffffffffffffffffffffffffffff1673ffffffffffffffffffffffffffffffffffffffff16815260200191505060405180910390f35b34801561041a57600080fd5b5061045d6004803603602081101561043157600080fd5b81019080803573ffffffffffffffffffffffffffffffffffffffff169060200190929190505050610f72565b005b34801561046b57600080fd5b50610474611122565b604051808273ffffffffffffffffffffffffffffffffffffffff1673ffffffffffffffffffffffffffffffffffffffff16815260200191505060405180910390f35b3480156104c257600080fd5b50610505600480360360208110156104d957600080fd5b81019080803573ffffffffffffffffffffffffffffffffffffffff169060200190929190505050611148565b005b34801561051357600080fd5b506105606004803603604081101561052a57600080fd5b81019080803573ffffffffffffffffffffffffffffffffffffffff169060200190929190803590602001909291905050506112f9565b005b34801561056e57600080fd5b50610577611481565b604051808273ffffffffffffffffffffffffffffffffffffffff1673ffffffffffffffffffffffffffffffffffffffff16815260200191505060405180910390f35b600260009054906101000a900473ffffffffffffffffffffffffffffffffffffffff168073ffffffffffffffffffffffffffffffffffffffff163373ffffffffffffffffffffffffffffffffffffffff161461067d576040517f08c379a00000000000000000000000000000000000000000000000000000000081526004018080602001828103825260168152602001807f496e76616c69642041757468656e7469636174696f6e0000000000000000000081525060200191505060405180910390fd5b81600360006101000a81548173ffffffffffffffffffffffffffffffffffffffff021916908373ffffffffffffffffffffffffffffffffffffffff1602179055505050565b600260009054906101000a900473ffffffffffffffffffffffffffffffffffffffff168073ffffffffffffffffffffffffffffffffffffffff163373ffffffffffffffffffffffffffffffffffffffff1614610786576040517f08c379a00000000000000000000000000000000000000000000000000000000081526004018080602001828103825260168152602001807f496e76616c69642041757468656e7469636174696f6e0000000000000000000081525060200191505060405180910390fd5b60008060009054906101000a900473ffffffffffffffffffffffffffffffffffffffff1660006040516107b8906114a6565b808373ffffffffffffffffffffffffffffffffffffffff1673ffffffffffffffffffffffffffffffffffffffff1681526020018260048111156107f757fe5b60ff16815260200192505050604051809103906000f08015801561081f573d6000803e3d6000fd5b50905080600560008373ffffffffffffffffffffffffffffffffffffffff1673ffffffffffffffffffffffffffffffffffffffff16815260200190815260200160002060006101000a81548173ffffffffffffffffffffffffffffffffffffffff021916908373ffffffffffffffffffffffffffffffffffffffff1602179055505050565b600260009054906101000a900473ffffffffffffffffffffffffffffffffffffffff168073ffffffffffffffffffffffffffffffffffffffff163373ffffffffffffffffffffffffffffffffffffffff1614610968576040517f08c379a00000000000000000000000000000000000000000000000000000000081526004018080602001828103825260168152602001807f496e76616c69642041757468656e7469636174696f6e0000000000000000000081525060200191505060405180910390fd5b81600360006101000a81548173ffffffffffffffffffffffffffffffffffffffff021916908373ffffffffffffffffffffffffffffffffffffffff1602179055505050565b60048054600181600116156101000203166002900480601f016020809104026020016040519081016040528092919081815260200182805460018160011615610100020316600290048015610a435780601f10610a1857610100808354040283529160200191610a43565b820191906000526020600020905b815481529060010190602001808311610a2657829003601f168201915b505050505081565b600260009054906101000a900473ffffffffffffffffffffffffffffffffffffffff168073ffffffffffffffffffffffffffffffffffffffff163373ffffffffffffffffffffffffffffffffffffffff1614610b0f576040517f08c379a00000000000000000000000000000000000000000000000000000000081526004018080602001828103825260168152602001807f496e76616c69642041757468656e7469636174696f6e0000000000000000000081525060200191505060405180910390fd5b600560008373ffffffffffffffffffffffffffffffffffffffff1673ffffffffffffffffffffffffffffffffffffffff16815260200190815260200160002060009054906101000a900473ffffffffffffffffffffffffffffffffffffffff1673ffffffffffffffffffffffffffffffffffffffff16636dd22fc66040518163ffffffff1660e01b8152600401600060405180830381600087803b158015610bb657600080fd5b505af1158015610bca573d6000803e3d6000fd5b505050505050565b60606006805480602002602001604051908101604052809291908181526020018280548015610c5657602002820191906000526020600020905b8160009054906101000a900473ffffffffffffffffffffffffffffffffffffffff1673ffffffffffffffffffffffffffffffffffffffff1681526020019060010190808311610c0c575b5050505050905090565b600260009054906101000a900473ffffffffffffffffffffffffffffffffffffffff168073ffffffffffffffffffffffffffffffffffffffff163373ffffffffffffffffffffffffffffffffffffffff1614610d24576040517f08c379a00000000000000000000000000000000000000000000000000000000081526004018080602001828103825260168152602001807f496e76616c69642041757468656e7469636174696f6e0000000000000000000081525060200191505060405180910390fd5b600180811115610d3057fe5b600560008673ffffffffffffffffffffffffffffffffffffffff1673ffffffffffffffffffffffffffffffffffffffff16815260200190815260200160002060009054906101000a900473ffffffffffffffffffffffffffffffffffffffff1673ffffffffffffffffffffffffffffffffffffffff1663463da8be6040518163ffffffff1660e01b815260040160206040518083038186803b158015610dd557600080fd5b505afa158015610de9573d6000803e3d6000fd5b505050506040513d6020811015610dff57600080fd5b81019080805190602001909291905050506001811115610e1b57fe5b1415610f2057600560008473ffffffffffffffffffffffffffffffffffffffff1673ffffffffffffffffffffffffffffffffffffffff16815260200190815260200160002060009054906101000a900473ffffffffffffffffffffffffffffffffffffffff1673ffffffffffffffffffffffffffffffffffffffff1663990dc9db85846040518363ffffffff1660e01b8152600401808373ffffffffffffffffffffffffffffffffffffffff1673ffffffffffffffffffffffffffffffffffffffff16815260200182815260200192505050600060405180830381600087803b158015610f0757600080fd5b505af1158015610f1b573d6000803e3d6000fd5b505050505b50505050565b600260009054906101000a900473ffffffffffffffffffffffffffffffffffffffff1681565b600160009054906101000a900473ffffffffffffffffffffffffffffffffffffffff1681565b600260009054906101000a900473ffffffffffffffffffffffffffffffffffffffff168073ffffffffffffffffffffffffffffffffffffffff163373ffffffffffffffffffffffffffffffffffffffff1614611036576040517f08c379a00000000000000000000000000000000000000000000000000000000081526004018080602001828103825260168152602001807f496e76616c69642041757468656e7469636174696f6e0000000000000000000081525060200191505060405180910390fd5b600073ffffffffffffffffffffffffffffffffffffffff16600160009054906101000a900473ffffffffffffffffffffffffffffffffffffffff1673ffffffffffffffffffffffffffffffffffffffff16146110dd576040517f08c379a00000000000000000000000000000000000000000000000000000000081526004018080602001828103825260288152602001806121ab6028913960400191505060405180910390fd5b81600160006101000a81548173ffffffffffffffffffffffffffffffffffffffff021916908373ffffffffffffffffffffffffffffffffffffffff1602179055505050565b600360009054906101000a900473ffffffffffffffffffffffffffffffffffffffff1681565b600260009054906101000a900473ffffffffffffffffffffffffffffffffffffffff168073ffffffffffffffffffffffffffffffffffffffff163373ffffffffffffffffffffffffffffffffffffffff161461120c576040517f08c379a00000000000000000000000000000000000000000000000000000000081526004018080602001828103825260168152602001807f496e76616c69642041757468656e7469636174696f6e0000000000000000000081525060200191505060405180910390fd5b600073ffffffffffffffffffffffffffffffffffffffff16600160009054906101000a900473ffffffffffffffffffffffffffffffffffffffff1673ffffffffffffffffffffffffffffffffffffffff1614156112b4576040517f08c379a000000000000000000000000000000000000000000000000000000000815260040180806020018281038252602a8152602001806121d3602a913960400191505060405180910390fd5b81600160006101000a81548173ffffffffffffffffffffffffffffffffffffffff021916908373ffffffffffffffffffffffffffffffffffffffff1602179055505050565b600260009054906101000a900473ffffffffffffffffffffffffffffffffffffffff168073ffffffffffffffffffffffffffffffffffffffff163373ffffffffffffffffffffffffffffffffffffffff16146113bd576040517f08c379a00000000000000000000000000000000000000000000000000000000081526004018080602001828103825260168152602001807f496e76616c69642041757468656e7469636174696f6e0000000000000000000081525060200191505060405180910390fd5b6000809054906101000a900473ffffffffffffffffffffffffffffffffffffffff1673ffffffffffffffffffffffffffffffffffffffff163373ffffffffffffffffffffffffffffffffffffffff1614801561142f5750813073ffffffffffffffffffffffffffffffffffffffff1631115b1561147c578273ffffffffffffffffffffffffffffffffffffffff166108fc839081150290604051600060405180830381858888f1935050505015801561147a573d6000803e3d6000fd5b505b505050565b6000809054906101000a900473ffffffffffffffffffffffffffffffffffffffff1681565b610cf7806114b48339019056fe608060405234801561001057600080fd5b50604051604080610cf78339810180604052604081101561003057600080fd5b810190808051906020019092919080519060200190929190505050306000806101000a81548173ffffffffffffffffffffffffffffffffffffffff021916908373ffffffffffffffffffffffffffffffffffffffff16021790555081600160006101000a81548173ffffffffffffffffffffffffffffffffffffffff021916908373ffffffffffffffffffffffffffffffffffffffff1602179055506001600860006101000a81548160ff021916908360018111156100eb57fe5b021790555080600860016101000a81548160ff0219169083600481111561010e57fe5b021790555060606040518060400160405280600681526020017f6c6f67676564000000000000000000000000000000000000000000000000000081525090507f1ab379b40005ad9e7ee28cc5354473bfe302c16d3f55bc66d50210a954c19190816040518080602001828103825283818151815260200191508051906020019080838360005b838110156101af578082015181840152602081019050610194565b50505050905090810190601f1680156101dc5780820380516001836020036101000a031916815260200191505b509250505060405180910390a1505050610afc806101fb6000396000f3fe6080604052600436106100f35760003560e01c806383be1bf11161008a578063a98521a911610059578063a98521a9146103fd578063df50e19d1461044e578063dfd44a9514610479578063ebd2a864146104b4576100f3565b806383be1bf1146102fb578063990dc9db1461034c5780639aee2e9a146103a75780639e2c1b16146103d2576100f3565b80636dd22fc6116100c65780636dd22fc6146101fb5780636fd7eb61146102125780637d34602d146102855780637d57daad146102c0576100f3565b806326107a381461010557806326c698011461015c57806339bfba7e14610187578063463da8be146101c2575b34600460008282540192505081905550005b34801561011157600080fd5b5061011a610505565b604051808273ffffffffffffffffffffffffffffffffffffffff1673ffffffffffffffffffffffffffffffffffffffff16815260200191505060405180910390f35b34801561016857600080fd5b5061017161052b565b6040518082815260200191505060405180910390f35b34801561019357600080fd5b506101c0600480360360208110156101aa57600080fd5b8101908080359060200190929190505050610531565b005b3480156101ce57600080fd5b506101d761054f565b604051808260018111156101e757fe5b60ff16815260200191505060405180910390f35b34801561020757600080fd5b50610210610562565b005b34801561021e57600080fd5b506102616004803603602081101561023557600080fd5b81019080803573ffffffffffffffffffffffffffffffffffffffff1690602001909291905050506106e7565b6040518082600281111561027157fe5b60ff16815260200191505060405180910390f35b34801561029157600080fd5b506102be600480360360208110156102a857600080fd5b8101908080359060200190929190505050610707565b005b3480156102cc57600080fd5b506102f9600480360360208110156102e357600080fd5b8101908080359060200190929190505050610725565b005b34801561030757600080fd5b5061034a6004803603602081101561031e57600080fd5b81019080803573ffffffffffffffffffffffffffffffffffffffff169060200190929190505050610743565b005b34801561035857600080fd5b506103a56004803603604081101561036f57600080fd5b81019080803573ffffffffffffffffffffffffffffffffffffffff16906020019092919080359060200190929190505050610812565b005b3480156103b357600080fd5b506103bc6108d1565b6040518082815260200191505060405180910390f35b3480156103de57600080fd5b506103e76108d7565b6040518082815260200191505060405180910390f35b34801561040957600080fd5b5061044c6004803603602081101561042057600080fd5b81019080803573ffffffffffffffffffffffffffffffffffffffff1690602001909291905050506108dd565b005b34801561045a57600080fd5b506104636109ac565b6040518082815260200191505060405180910390f35b34801561048557600080fd5b506104b26004803603602081101561049c57600080fd5b81019080803590602001909291905050506109b2565b005b3480156104c057600080fd5b50610503600480360360208110156104d757600080fd5b81019080803573ffffffffffffffffffffffffffffffffffffffff1690602001909291905050506109d0565b005b600260009054906101000a900473ffffffffffffffffffffffffffffffffffffffff1681565b60055481565b61054681600654610a9f90919063ffffffff16565b60068190555050565b600860009054906101000a900460ff1681565b600160009054906101000a900473ffffffffffffffffffffffffffffffffffffffff1673ffffffffffffffffffffffffffffffffffffffff163373ffffffffffffffffffffffffffffffffffffffff1614610625576040517f08c379a00000000000000000000000000000000000000000000000000000000081526004018080602001828103825260158152602001807f696e76616c696420617574686f7269736174696f6e000000000000000000000081525060200191505060405180910390fd5b6000600181111561063257fe5b600860009054906101000a900460ff16600181111561064d57fe5b14156106c1576040517f08c379a00000000000000000000000000000000000000000000000000000000081526004018080602001828103825260168152602001807f4163636f756e7420416c726561647920436c6f7365640000000000000000000081525060200191505060405180910390fd5b6000600860006101000a81548160ff021916908360018111156106e057fe5b0217905550565b60036020528060005260406000206000915054906101000a900460ff1681565b61071c81600754610a9f90919063ffffffff16565b60078190555050565b61073a81600754610ab990919063ffffffff16565b60078190555050565b6000600281111561075057fe5b600360008373ffffffffffffffffffffffffffffffffffffffff1673ffffffffffffffffffffffffffffffffffffffff16815260200190815260200160002060009054906101000a900460ff1660028111156107a857fe5b1461080f576000600360008373ffffffffffffffffffffffffffffffffffffffff1673ffffffffffffffffffffffffffffffffffffffff16815260200190815260200160002060006101000a81548160ff0219169083600281111561080957fe5b02179055505b50565b600160009054906101000a900473ffffffffffffffffffffffffffffffffffffffff1673ffffffffffffffffffffffffffffffffffffffff163373ffffffffffffffffffffffffffffffffffffffff16148015610870575080600454105b156108cd57806004600082825403925050819055508173ffffffffffffffffffffffffffffffffffffffff166108fc829081150290604051600060405180830381858888f193505050501580156108cb573d6000803e3d6000fd5b505b5050565b60075481565b60045481565b600060028111156108ea57fe5b600360008373ffffffffffffffffffffffffffffffffffffffff1673ffffffffffffffffffffffffffffffffffffffff16815260200190815260200160002060009054906101000a900460ff16600281111561094257fe5b146109a9576000600360008373ffffffffffffffffffffffffffffffffffffffff1673ffffffffffffffffffffffffffffffffffffffff16815260200190815260200160002060006101000a81548160ff021916908360028111156109a357fe5b02179055505b50565b60065481565b6109c781600654610ab990919063ffffffff16565b60068190555050565b600060028111156109dd57fe5b600360008373ffffffffffffffffffffffffffffffffffffffff1673ffffffffffffffffffffffffffffffffffffffff16815260200190815260200160002060009054906101000a900460ff166002811115610a3557fe5b14610a9c576000600360008373ffffffffffffffffffffffffffffffffffffffff1673ffffffffffffffffffffffffffffffffffffffff16815260200190815260200160002060006101000a81548160ff02191690836002811115610a9657fe5b02179055505b50565b6000818301905082811015610ab057fe5b80905092915050565b600082821115610ac557fe5b81830390509291505056fea165627a7a723058201f52cdbfbe0836187e8460fe6c988962a14bb14dd165af60a32767b72351bd200029656d706c6f79656520616c72656164792068617320612073706f7573652072656769737465726564656d706c6f79656520646f6573206e6f74206861766520612073706f7573652072656769737465726564a165627a7a72305820ad229ef8abd04b13f9aa1d3540421f657c83afd0ad35c71f3387c742646f0d790029a165627a7a723058200d5e3ca47a948cf29736c3f8b4ba50f5d27c4d100bebc727ee948bb47ee687960029",
  "source": "pragma solidity ^0.5.0;\n\nimport './helpers/SafeMath.sol';\nimport './Employee.sol';\nimport './Account.sol';\ncontract UniSuperLedger {\n    using SafeMath for *;\n\n    mapping (string => address) AccountMap;\n    string[] EmployeeId;\n    modifier uniqueUser (string memory _username){\n        require(AccountMap[_username] == address(0), \"Username already taken !\");\n    _;\n    }\n\n    function createEmployeeId(string memory _dob, address payable _addressEmployee, string memory _username) public uniqueUser(_username){\n        Employee tempEmp = new Employee(_dob, _addressEmployee);\n        AccountMap[_username] = address(tempEmp);\n        EmployeeId.push(_username);\n    }\n\n    function getEmployeeContractAddress(string memory _username) public view returns( address eAddress) {\n        return AccountMap[_username];\n    }\n }",
  "sourcePath": "D:/Soft/BlockChain/BlockChain/unisuper-blockchain-poc/contracts/UniSuperLedger.sol",
  "compiler": {
    "name": "solc",
    "version": "0.5.8+commit.23d335f2.Emscripten.clang"
  },
  "schemaVersion": "3.0.13",
  "updatedAt": "2019-09-12T12:07:37.375Z",
  "devdoc": {
    "methods": {}
  },
  "userdoc": {
    "methods": {}
  }
}